{
  "@ironblocks/firewall-consumer/contracts/consumers/VennFirewallConsumer.sol": {
    "VennFirewallConsumer": {
      "abi": [
        {
          "inputs": [
            {
              "internalType": "address",
              "name": "target",
              "type": "address"
            }
          ],
          "name": "AddressEmptyCode",
          "type": "error"
        },
        {
          "inputs": [],
          "name": "FailedCall",
          "type": "error"
        },
        {
          "anonymous": false,
          "inputs": [
            {
              "indexed": false,
              "internalType": "address",
              "name": "newAdmin",
              "type": "address"
            }
          ],
          "name": "FirewallAdminUpdated",
          "type": "event"
        },
        {
          "anonymous": false,
          "inputs": [
            {
              "indexed": false,
              "internalType": "address",
              "name": "newFirewall",
              "type": "address"
            }
          ],
          "name": "FirewallUpdated",
          "type": "event"
        },
        {
          "inputs": [],
          "name": "acceptFirewallAdmin",
          "outputs": [],
          "stateMutability": "nonpayable",
          "type": "function"
        },
        {
          "inputs": [],
          "name": "firewallAdmin",
          "outputs": [
            {
              "internalType": "address",
              "name": "",
              "type": "address"
            }
          ],
          "stateMutability": "view",
          "type": "function"
        },
        {
          "inputs": [
            {
              "internalType": "uint256",
              "name": "userNativeFee",
              "type": "uint256"
            },
            {
              "internalType": "bytes",
              "name": "proxyPayload",
              "type": "bytes"
            },
            {
              "internalType": "bytes",
              "name": "data",
              "type": "bytes"
            }
          ],
          "name": "safeFunctionCall",
          "outputs": [],
          "stateMutability": "payable",
          "type": "function"
        },
        {
          "inputs": [
            {
              "internalType": "address",
              "name": "attestationCenterProxy",
              "type": "address"
            }
          ],
          "name": "setAttestationCenterProxy",
          "outputs": [],
          "stateMutability": "nonpayable",
          "type": "function"
        },
        {
          "inputs": [
            {
              "internalType": "address",
              "name": "_firewall",
              "type": "address"
            }
          ],
          "name": "setFirewall",
          "outputs": [],
          "stateMutability": "nonpayable",
          "type": "function"
        },
        {
          "inputs": [
            {
              "internalType": "address",
              "name": "_firewallAdmin",
              "type": "address"
            }
          ],
          "name": "setFirewallAdmin",
          "outputs": [],
          "stateMutability": "nonpayable",
          "type": "function"
        }
      ],
      "evm": {
        "bytecode": {
          "linkReferences": {},
          "object": "608060405234801561001057600080fd5b5060003361005660017f5dd2e3b890564a8f99f7f203f226a27a8aa59aee19a4ece5cf5eaa77ab91f66260001c610047919061016c565b60001b8361012560201b60201c565b61009860017f29982a6ac507a2a707ced6dee5d76285dd49725db977de83d9702c628c97413660001c610089919061016c565b60001b8261012560201b60201c565b6100db60017f471011fb6f6f818490c7275a3f5781bd5ea022cb5a243dd8f2d009d0882c74a360001c6100cb919061016c565b60001b600161012560201b60201c565b61011e60017f649dd3ecd011e05f7b661f5786e7205a54d2201cb71ede57000d4047776e204060001c61010e919061016c565b60001b600161012c60201b60201c565b50506101a0565b8082555050565b8082555050565b6000819050919050565b7f4e487b7100000000000000000000000000000000000000000000000000000000600052601160045260246000fd5b600061017782610133565b915061018283610133565b925082820390508181111561019a5761019961013d565b5b92915050565b6111aa806101af6000396000f3fe6080604052600436106100555760003560e01c806354222e6c1461005a578063734b7198146100835780637c65c38b146100ac5780638c36d02d146100c3578063cb09f61f146100ec578063f05c858214610108575b600080fd5b34801561006657600080fd5b50610081600480360381019061007c9190610bc0565b610133565b005b34801561008f57600080fd5b506100aa60048036038101906100a59190610bc0565b610269565b005b3480156100b857600080fd5b506100c16103bf565b005b3480156100cf57600080fd5b506100ea60048036038101906100e59190610bc0565b6104dc565b005b61010660048036038101906101019190610c88565b6105fa565b005b34801561011457600080fd5b5061011d610795565b60405161012a9190610d2c565b60405180910390f35b61016e60017f29982a6ac507a2a707ced6dee5d76285dd49725db977de83d9702c628c97413660001c6101669190610d76565b60001b6107d7565b73ffffffffffffffffffffffffffffffffffffffff163373ffffffffffffffffffffffffffffffffffffffff16146101db576040517f08c379a00000000000000000000000000000000000000000000000000000000081526004016101d290610e2d565b60405180910390fd5b600073ffffffffffffffffffffffffffffffffffffffff168173ffffffffffffffffffffffffffffffffffffffff161461022a5761022081630c908cff60e01b6107e2565b61022957600080fd5b5b61026660017fbb5f5c81badac71dead5c1b29002ce6bbac893e2645c265b13d7499de81ab6e160001c61025d9190610d76565b60001b82610881565b50565b6102a460017f29982a6ac507a2a707ced6dee5d76285dd49725db977de83d9702c628c97413660001c61029c9190610d76565b60001b6107d7565b73ffffffffffffffffffffffffffffffffffffffff163373ffffffffffffffffffffffffffffffffffffffff1614610311576040517f08c379a000000000000000000000000000000000000000000000000000000000815260040161030890610e2d565b60405180910390fd5b600073ffffffffffffffffffffffffffffffffffffffff168173ffffffffffffffffffffffffffffffffffffffff1603610380576040517f08c379a000000000000000000000000000000000000000000000000000000000815260040161037790610e99565b60405180910390fd5b6103bc60017f8583d637b7eb6415d11ef26648cf0702cf161a357dfe51b6ff7a332110d4bdd360001c6103b39190610d76565b60001b82610881565b50565b6103fa60017f8583d637b7eb6415d11ef26648cf0702cf161a357dfe51b6ff7a332110d4bdd360001c6103f29190610d76565b60001b6107d7565b73ffffffffffffffffffffffffffffffffffffffff163373ffffffffffffffffffffffffffffffffffffffff1614610467576040517f08c379a000000000000000000000000000000000000000000000000000000000815260040161045e90610f05565b60405180910390fd5b6104a360017f29982a6ac507a2a707ced6dee5d76285dd49725db977de83d9702c628c97413660001c61049a9190610d76565b60001b33610881565b7f2763a008a9a724a5da2f35346041f5c552001ab556d786252e1ff4ff798dfc1b336040516104d29190610d2c565b60405180910390a1565b61051760017f29982a6ac507a2a707ced6dee5d76285dd49725db977de83d9702c628c97413660001c61050f9190610d76565b60001b6107d7565b73ffffffffffffffffffffffffffffffffffffffff163373ffffffffffffffffffffffffffffffffffffffff1614610584576040517f08c379a000000000000000000000000000000000000000000000000000000000815260040161057b90610e2d565b60405180910390fd5b6105c060017f5dd2e3b890564a8f99f7f203f226a27a8aa59aee19a4ece5cf5eaa77ab91f66260001c6105b79190610d76565b60001b82610881565b7f60c1452966d777aab347837b9ceeaa613af32925b5aab43918e878fd03608670816040516105ef9190610d2c565b60405180910390a150565b8434101561063d576040517f08c379a000000000000000000000000000000000000000000000000000000000815260040161063490610f97565b60405180910390fd5b61064685610888565b600061068360017fbb5f5c81badac71dead5c1b29002ce6bbac893e2645c265b13d7499de81ab6e160001c61067b9190610d76565b60001b6107d7565b905060008173ffffffffffffffffffffffffffffffffffffffff168787876040516106af929190610ff6565b60006040518083038185875af1925050503d80600081146106ec576040519150601f19603f3d011682016040523d82523d6000602084013e6106f1565b606091505b5050905080610735576040517f08c379a000000000000000000000000000000000000000000000000000000000815260040161072c90611081565b60405180910390fd5b6107833085858080601f016020809104026020016040519081016040528093929190818152602001838380828437600081840152601f19601f82011690508083019250505050505050610940565b5061078c6109c4565b50505050505050565b60006107d260017f29982a6ac507a2a707ced6dee5d76285dd49725db977de83d9702c628c97413660001c6107ca9190610d76565b60001b6107d7565b905090565b600081549050919050565b600080826040516024016107f691906110dc565b6040516020818303038152906040526301ffc9a760e01b6020820180517bffffffffffffffffffffffffffffffffffffffffffffffffffffffff838183161783525050505090506000806000602060008551602087018a617530fa92503d91506000519050828015610869575060208210155b80156108755750600081115b94505050505092915050565b8082555050565b6108c460017f471011fb6f6f818490c7275a3f5781bd5ea022cb5a243dd8f2d009d0882c74a360001c6108bb9190610d76565b60001b33610881565b61090160017f649dd3ecd011e05f7b661f5786e7205a54d2201cb71ede57000d4047776e204060001c6108f79190610d76565b60001b6002610a7d565b61093d60017f249fe6ee22e6e15273c690c436e9cd06968fe8fb9e18a17365c2d2aa2add4e7260001c6109349190610d76565b60001b82610a7d565b50565b60606000808473ffffffffffffffffffffffffffffffffffffffff168460405161096a919061115d565b600060405180830381855af49150503d80600081146109a5576040519150601f19603f3d011682016040523d82523d6000602084013e6109aa565b606091505b50915091506109ba858383610a84565b9250505092915050565b610a0160017f471011fb6f6f818490c7275a3f5781bd5ea022cb5a243dd8f2d009d0882c74a360001c6109f79190610d76565b60001b6001610881565b610a3e60017f649dd3ecd011e05f7b661f5786e7205a54d2201cb71ede57000d4047776e204060001c610a349190610d76565b60001b6001610a7d565b610a7b60017f249fe6ee22e6e15273c690c436e9cd06968fe8fb9e18a17365c2d2aa2add4e7260001c610a719190610d76565b60001b6000610a7d565b565b8082555050565b606082610a9957610a9482610b13565b610b0b565b60008251148015610ac1575060008473ffffffffffffffffffffffffffffffffffffffff163b145b15610b0357836040517f9996b315000000000000000000000000000000000000000000000000000000008152600401610afa9190610d2c565b60405180910390fd5b819050610b0c565b5b9392505050565b600081511115610b265780518082602001fd5b6040517fd6bda27500000000000000000000000000000000000000000000000000000000815260040160405180910390fd5b600080fd5b600080fd5b600073ffffffffffffffffffffffffffffffffffffffff82169050919050565b6000610b8d82610b62565b9050919050565b610b9d81610b82565b8114610ba857600080fd5b50565b600081359050610bba81610b94565b92915050565b600060208284031215610bd657610bd5610b58565b5b6000610be484828501610bab565b91505092915050565b6000819050919050565b610c0081610bed565b8114610c0b57600080fd5b50565b600081359050610c1d81610bf7565b92915050565b600080fd5b600080fd5b600080fd5b60008083601f840112610c4857610c47610c23565b5b8235905067ffffffffffffffff811115610c6557610c64610c28565b5b602083019150836001820283011115610c8157610c80610c2d565b5b9250929050565b600080600080600060608688031215610ca457610ca3610b58565b5b6000610cb288828901610c0e565b955050602086013567ffffffffffffffff811115610cd357610cd2610b5d565b5b610cdf88828901610c32565b9450945050604086013567ffffffffffffffff811115610d0257610d01610b5d565b5b610d0e88828901610c32565b92509250509295509295909350565b610d2681610b82565b82525050565b6000602082019050610d416000830184610d1d565b92915050565b7f4e487b7100000000000000000000000000000000000000000000000000000000600052601160045260246000fd5b6000610d8182610bed565b9150610d8c83610bed565b9250828203905081811115610da457610da3610d47565b5b92915050565b600082825260208201905092915050565b7f4669726577616c6c436f6e73756d65723a206e6f74206669726577616c6c206160008201527f646d696e00000000000000000000000000000000000000000000000000000000602082015250565b6000610e17602483610daa565b9150610e2282610dbb565b604082019050919050565b60006020820190508181036000830152610e4681610e0a565b9050919050565b7f4669726577616c6c436f6e73756d65723a207a65726f20616464726573730000600082015250565b6000610e83601e83610daa565b9150610e8e82610e4d565b602082019050919050565b60006020820190508181036000830152610eb281610e76565b9050919050565b7f4669726577616c6c436f6e73756d65723a206e6f74206e65772061646d696e00600082015250565b6000610eef601f83610daa565b9150610efa82610eb9565b602082019050919050565b60006020820190508181036000830152610f1e81610ee2565b9050919050565b7f56656e6e4669726577616c6c436f6e73756d65723a204e6f7420656e6f75676860008201527f2045544820666f72206665650000000000000000000000000000000000000000602082015250565b6000610f81602c83610daa565b9150610f8c82610f25565b604082019050919050565b60006020820190508181036000830152610fb081610f74565b9050919050565b600081905092915050565b82818337600083830152505050565b6000610fdd8385610fb7565b9350610fea838584610fc2565b82840190509392505050565b6000611003828486610fd1565b91508190509392505050565b7f56656e6e4669726577616c6c436f6e73756d65723a2050726f78792063616c6c60008201527f206661696c656400000000000000000000000000000000000000000000000000602082015250565b600061106b602783610daa565b91506110768261100f565b604082019050919050565b6000602082019050818103600083015261109a8161105e565b9050919050565b60007fffffffff0000000000000000000000000000000000000000000000000000000082169050919050565b6110d6816110a1565b82525050565b60006020820190506110f160008301846110cd565b92915050565b600081519050919050565b60005b83811015611120578082015181840152602081019050611105565b60008484015250505050565b6000611137826110f7565b6111418185610fb7565b9350611151818560208601611102565b80840191505092915050565b6000611169828461112c565b91508190509291505056fea26469706673582212208dd1822d9ab2da014c34775ca9535ff6a4e621f84ffc202cc1dbb4cb7868e8b964736f6c634300081b0033",
          "opcodes": "PUSH1 0x80 PUSH1 0x40 MSTORE CALLVALUE DUP1 ISZERO PUSH2 0x10 JUMPI PUSH1 0x0 DUP1 REVERT JUMPDEST POP PUSH1 0x0 CALLER PUSH2 0x56 PUSH1 0x1 PUSH32 0x5DD2E3B890564A8F99F7F203F226A27A8AA59AEE19A4ECE5CF5EAA77AB91F662 PUSH1 0x0 SHR PUSH2 0x47 SWAP2 SWAP1 PUSH2 0x16C JUMP JUMPDEST PUSH1 0x0 SHL DUP4 PUSH2 0x125 PUSH1 0x20 SHL PUSH1 0x20 SHR JUMP JUMPDEST PUSH2 0x98 PUSH1 0x1 PUSH32 0x29982A6AC507A2A707CED6DEE5D76285DD49725DB977DE83D9702C628C974136 PUSH1 0x0 SHR PUSH2 0x89 SWAP2 SWAP1 PUSH2 0x16C JUMP JUMPDEST PUSH1 0x0 SHL DUP3 PUSH2 0x125 PUSH1 0x20 SHL PUSH1 0x20 SHR JUMP JUMPDEST PUSH2 0xDB PUSH1 0x1 PUSH32 0x471011FB6F6F818490C7275A3F5781BD5EA022CB5A243DD8F2D009D0882C74A3 PUSH1 0x0 SHR PUSH2 0xCB SWAP2 SWAP1 PUSH2 0x16C JUMP JUMPDEST PUSH1 0x0 SHL PUSH1 0x1 PUSH2 0x125 PUSH1 0x20 SHL PUSH1 0x20 SHR JUMP JUMPDEST PUSH2 0x11E PUSH1 0x1 PUSH32 0x649DD3ECD011E05F7B661F5786E7205A54D2201CB71EDE57000D4047776E2040 PUSH1 0x0 SHR PUSH2 0x10E SWAP2 SWAP1 PUSH2 0x16C JUMP JUMPDEST PUSH1 0x0 SHL PUSH1 0x1 PUSH2 0x12C PUSH1 0x20 SHL PUSH1 0x20 SHR JUMP JUMPDEST POP POP PUSH2 0x1A0 JUMP JUMPDEST DUP1 DUP3 SSTORE POP POP JUMP JUMPDEST DUP1 DUP3 SSTORE POP POP JUMP JUMPDEST PUSH1 0x0 DUP2 SWAP1 POP SWAP2 SWAP1 POP JUMP JUMPDEST PUSH32 0x4E487B7100000000000000000000000000000000000000000000000000000000 PUSH1 0x0 MSTORE PUSH1 0x11 PUSH1 0x4 MSTORE PUSH1 0x24 PUSH1 0x0 REVERT JUMPDEST PUSH1 0x0 PUSH2 0x177 DUP3 PUSH2 0x133 JUMP JUMPDEST SWAP2 POP PUSH2 0x182 DUP4 PUSH2 0x133 JUMP JUMPDEST SWAP3 POP DUP3 DUP3 SUB SWAP1 POP DUP2 DUP2 GT ISZERO PUSH2 0x19A JUMPI PUSH2 0x199 PUSH2 0x13D JUMP JUMPDEST JUMPDEST SWAP3 SWAP2 POP POP JUMP JUMPDEST PUSH2 0x11AA DUP1 PUSH2 0x1AF PUSH1 0x0 CODECOPY PUSH1 0x0 RETURN INVALID PUSH1 0x80 PUSH1 0x40 MSTORE PUSH1 0x4 CALLDATASIZE LT PUSH2 0x55 JUMPI PUSH1 0x0 CALLDATALOAD PUSH1 0xE0 SHR DUP1 PUSH4 0x54222E6C EQ PUSH2 0x5A JUMPI DUP1 PUSH4 0x734B7198 EQ PUSH2 0x83 JUMPI DUP1 PUSH4 0x7C65C38B EQ PUSH2 0xAC JUMPI DUP1 PUSH4 0x8C36D02D EQ PUSH2 0xC3 JUMPI DUP1 PUSH4 0xCB09F61F EQ PUSH2 0xEC JUMPI DUP1 PUSH4 0xF05C8582 EQ PUSH2 0x108 JUMPI JUMPDEST PUSH1 0x0 DUP1 REVERT JUMPDEST CALLVALUE DUP1 ISZERO PUSH2 0x66 JUMPI PUSH1 0x0 DUP1 REVERT JUMPDEST POP PUSH2 0x81 PUSH1 0x4 DUP1 CALLDATASIZE SUB DUP2 ADD SWAP1 PUSH2 0x7C SWAP2 SWAP1 PUSH2 0xBC0 JUMP JUMPDEST PUSH2 0x133 JUMP JUMPDEST STOP JUMPDEST CALLVALUE DUP1 ISZERO PUSH2 0x8F JUMPI PUSH1 0x0 DUP1 REVERT JUMPDEST POP PUSH2 0xAA PUSH1 0x4 DUP1 CALLDATASIZE SUB DUP2 ADD SWAP1 PUSH2 0xA5 SWAP2 SWAP1 PUSH2 0xBC0 JUMP JUMPDEST PUSH2 0x269 JUMP JUMPDEST STOP JUMPDEST CALLVALUE DUP1 ISZERO PUSH2 0xB8 JUMPI PUSH1 0x0 DUP1 REVERT JUMPDEST POP PUSH2 0xC1 PUSH2 0x3BF JUMP JUMPDEST STOP JUMPDEST CALLVALUE DUP1 ISZERO PUSH2 0xCF JUMPI PUSH1 0x0 DUP1 REVERT JUMPDEST POP PUSH2 0xEA PUSH1 0x4 DUP1 CALLDATASIZE SUB DUP2 ADD SWAP1 PUSH2 0xE5 SWAP2 SWAP1 PUSH2 0xBC0 JUMP JUMPDEST PUSH2 0x4DC JUMP JUMPDEST STOP JUMPDEST PUSH2 0x106 PUSH1 0x4 DUP1 CALLDATASIZE SUB DUP2 ADD SWAP1 PUSH2 0x101 SWAP2 SWAP1 PUSH2 0xC88 JUMP JUMPDEST PUSH2 0x5FA JUMP JUMPDEST STOP JUMPDEST CALLVALUE DUP1 ISZERO PUSH2 0x114 JUMPI PUSH1 0x0 DUP1 REVERT JUMPDEST POP PUSH2 0x11D PUSH2 0x795 JUMP JUMPDEST PUSH1 0x40 MLOAD PUSH2 0x12A SWAP2 SWAP1 PUSH2 0xD2C JUMP JUMPDEST PUSH1 0x40 MLOAD DUP1 SWAP2 SUB SWAP1 RETURN JUMPDEST PUSH2 0x16E PUSH1 0x1 PUSH32 0x29982A6AC507A2A707CED6DEE5D76285DD49725DB977DE83D9702C628C974136 PUSH1 0x0 SHR PUSH2 0x166 SWAP2 SWAP1 PUSH2 0xD76 JUMP JUMPDEST PUSH1 0x0 SHL PUSH2 0x7D7 JUMP JUMPDEST PUSH20 0xFFFFFFFFFFFFFFFFFFFFFFFFFFFFFFFFFFFFFFFF AND CALLER PUSH20 0xFFFFFFFFFFFFFFFFFFFFFFFFFFFFFFFFFFFFFFFF AND EQ PUSH2 0x1DB JUMPI PUSH1 0x40 MLOAD PUSH32 0x8C379A000000000000000000000000000000000000000000000000000000000 DUP2 MSTORE PUSH1 0x4 ADD PUSH2 0x1D2 SWAP1 PUSH2 0xE2D JUMP JUMPDEST PUSH1 0x40 MLOAD DUP1 SWAP2 SUB SWAP1 REVERT JUMPDEST PUSH1 0x0 PUSH20 0xFFFFFFFFFFFFFFFFFFFFFFFFFFFFFFFFFFFFFFFF AND DUP2 PUSH20 0xFFFFFFFFFFFFFFFFFFFFFFFFFFFFFFFFFFFFFFFF AND EQ PUSH2 0x22A JUMPI PUSH2 0x220 DUP2 PUSH4 0xC908CFF PUSH1 0xE0 SHL PUSH2 0x7E2 JUMP JUMPDEST PUSH2 0x229 JUMPI PUSH1 0x0 DUP1 REVERT JUMPDEST JUMPDEST PUSH2 0x266 PUSH1 0x1 PUSH32 0xBB5F5C81BADAC71DEAD5C1B29002CE6BBAC893E2645C265B13D7499DE81AB6E1 PUSH1 0x0 SHR PUSH2 0x25D SWAP2 SWAP1 PUSH2 0xD76 JUMP JUMPDEST PUSH1 0x0 SHL DUP3 PUSH2 0x881 JUMP JUMPDEST POP JUMP JUMPDEST PUSH2 0x2A4 PUSH1 0x1 PUSH32 0x29982A6AC507A2A707CED6DEE5D76285DD49725DB977DE83D9702C628C974136 PUSH1 0x0 SHR PUSH2 0x29C SWAP2 SWAP1 PUSH2 0xD76 JUMP JUMPDEST PUSH1 0x0 SHL PUSH2 0x7D7 JUMP JUMPDEST PUSH20 0xFFFFFFFFFFFFFFFFFFFFFFFFFFFFFFFFFFFFFFFF AND CALLER PUSH20 0xFFFFFFFFFFFFFFFFFFFFFFFFFFFFFFFFFFFFFFFF AND EQ PUSH2 0x311 JUMPI PUSH1 0x40 MLOAD PUSH32 0x8C379A000000000000000000000000000000000000000000000000000000000 DUP2 MSTORE PUSH1 0x4 ADD PUSH2 0x308 SWAP1 PUSH2 0xE2D JUMP JUMPDEST PUSH1 0x40 MLOAD DUP1 SWAP2 SUB SWAP1 REVERT JUMPDEST PUSH1 0x0 PUSH20 0xFFFFFFFFFFFFFFFFFFFFFFFFFFFFFFFFFFFFFFFF AND DUP2 PUSH20 0xFFFFFFFFFFFFFFFFFFFFFFFFFFFFFFFFFFFFFFFF AND SUB PUSH2 0x380 JUMPI PUSH1 0x40 MLOAD PUSH32 0x8C379A000000000000000000000000000000000000000000000000000000000 DUP2 MSTORE PUSH1 0x4 ADD PUSH2 0x377 SWAP1 PUSH2 0xE99 JUMP JUMPDEST PUSH1 0x40 MLOAD DUP1 SWAP2 SUB SWAP1 REVERT JUMPDEST PUSH2 0x3BC PUSH1 0x1 PUSH32 0x8583D637B7EB6415D11EF26648CF0702CF161A357DFE51B6FF7A332110D4BDD3 PUSH1 0x0 SHR PUSH2 0x3B3 SWAP2 SWAP1 PUSH2 0xD76 JUMP JUMPDEST PUSH1 0x0 SHL DUP3 PUSH2 0x881 JUMP JUMPDEST POP JUMP JUMPDEST PUSH2 0x3FA PUSH1 0x1 PUSH32 0x8583D637B7EB6415D11EF26648CF0702CF161A357DFE51B6FF7A332110D4BDD3 PUSH1 0x0 SHR PUSH2 0x3F2 SWAP2 SWAP1 PUSH2 0xD76 JUMP JUMPDEST PUSH1 0x0 SHL PUSH2 0x7D7 JUMP JUMPDEST PUSH20 0xFFFFFFFFFFFFFFFFFFFFFFFFFFFFFFFFFFFFFFFF AND CALLER PUSH20 0xFFFFFFFFFFFFFFFFFFFFFFFFFFFFFFFFFFFFFFFF AND EQ PUSH2 0x467 JUMPI PUSH1 0x40 MLOAD PUSH32 0x8C379A000000000000000000000000000000000000000000000000000000000 DUP2 MSTORE PUSH1 0x4 ADD PUSH2 0x45E SWAP1 PUSH2 0xF05 JUMP JUMPDEST PUSH1 0x40 MLOAD DUP1 SWAP2 SUB SWAP1 REVERT JUMPDEST PUSH2 0x4A3 PUSH1 0x1 PUSH32 0x29982A6AC507A2A707CED6DEE5D76285DD49725DB977DE83D9702C628C974136 PUSH1 0x0 SHR PUSH2 0x49A SWAP2 SWAP1 PUSH2 0xD76 JUMP JUMPDEST PUSH1 0x0 SHL CALLER PUSH2 0x881 JUMP JUMPDEST PUSH32 0x2763A008A9A724A5DA2F35346041F5C552001AB556D786252E1FF4FF798DFC1B CALLER PUSH1 0x40 MLOAD PUSH2 0x4D2 SWAP2 SWAP1 PUSH2 0xD2C JUMP JUMPDEST PUSH1 0x40 MLOAD DUP1 SWAP2 SUB SWAP1 LOG1 JUMP JUMPDEST PUSH2 0x517 PUSH1 0x1 PUSH32 0x29982A6AC507A2A707CED6DEE5D76285DD49725DB977DE83D9702C628C974136 PUSH1 0x0 SHR PUSH2 0x50F SWAP2 SWAP1 PUSH2 0xD76 JUMP JUMPDEST PUSH1 0x0 SHL PUSH2 0x7D7 JUMP JUMPDEST PUSH20 0xFFFFFFFFFFFFFFFFFFFFFFFFFFFFFFFFFFFFFFFF AND CALLER PUSH20 0xFFFFFFFFFFFFFFFFFFFFFFFFFFFFFFFFFFFFFFFF AND EQ PUSH2 0x584 JUMPI PUSH1 0x40 MLOAD PUSH32 0x8C379A000000000000000000000000000000000000000000000000000000000 DUP2 MSTORE PUSH1 0x4 ADD PUSH2 0x57B SWAP1 PUSH2 0xE2D JUMP JUMPDEST PUSH1 0x40 MLOAD DUP1 SWAP2 SUB SWAP1 REVERT JUMPDEST PUSH2 0x5C0 PUSH1 0x1 PUSH32 0x5DD2E3B890564A8F99F7F203F226A27A8AA59AEE19A4ECE5CF5EAA77AB91F662 PUSH1 0x0 SHR PUSH2 0x5B7 SWAP2 SWAP1 PUSH2 0xD76 JUMP JUMPDEST PUSH1 0x0 SHL DUP3 PUSH2 0x881 JUMP JUMPDEST PUSH32 0x60C1452966D777AAB347837B9CEEAA613AF32925B5AAB43918E878FD03608670 DUP2 PUSH1 0x40 MLOAD PUSH2 0x5EF SWAP2 SWAP1 PUSH2 0xD2C JUMP JUMPDEST PUSH1 0x40 MLOAD DUP1 SWAP2 SUB SWAP1 LOG1 POP JUMP JUMPDEST DUP5 CALLVALUE LT ISZERO PUSH2 0x63D JUMPI PUSH1 0x40 MLOAD PUSH32 0x8C379A000000000000000000000000000000000000000000000000000000000 DUP2 MSTORE PUSH1 0x4 ADD PUSH2 0x634 SWAP1 PUSH2 0xF97 JUMP JUMPDEST PUSH1 0x40 MLOAD DUP1 SWAP2 SUB SWAP1 REVERT JUMPDEST PUSH2 0x646 DUP6 PUSH2 0x888 JUMP JUMPDEST PUSH1 0x0 PUSH2 0x683 PUSH1 0x1 PUSH32 0xBB5F5C81BADAC71DEAD5C1B29002CE6BBAC893E2645C265B13D7499DE81AB6E1 PUSH1 0x0 SHR PUSH2 0x67B SWAP2 SWAP1 PUSH2 0xD76 JUMP JUMPDEST PUSH1 0x0 SHL PUSH2 0x7D7 JUMP JUMPDEST SWAP1 POP PUSH1 0x0 DUP2 PUSH20 0xFFFFFFFFFFFFFFFFFFFFFFFFFFFFFFFFFFFFFFFF AND DUP8 DUP8 DUP8 PUSH1 0x40 MLOAD PUSH2 0x6AF SWAP3 SWAP2 SWAP1 PUSH2 0xFF6 JUMP JUMPDEST PUSH1 0x0 PUSH1 0x40 MLOAD DUP1 DUP4 SUB DUP2 DUP6 DUP8 GAS CALL SWAP3 POP POP POP RETURNDATASIZE DUP1 PUSH1 0x0 DUP2 EQ PUSH2 0x6EC JUMPI PUSH1 0x40 MLOAD SWAP2 POP PUSH1 0x1F NOT PUSH1 0x3F RETURNDATASIZE ADD AND DUP3 ADD PUSH1 0x40 MSTORE RETURNDATASIZE DUP3 MSTORE RETURNDATASIZE PUSH1 0x0 PUSH1 0x20 DUP5 ADD RETURNDATACOPY PUSH2 0x6F1 JUMP JUMPDEST PUSH1 0x60 SWAP2 POP JUMPDEST POP POP SWAP1 POP DUP1 PUSH2 0x735 JUMPI PUSH1 0x40 MLOAD PUSH32 0x8C379A000000000000000000000000000000000000000000000000000000000 DUP2 MSTORE PUSH1 0x4 ADD PUSH2 0x72C SWAP1 PUSH2 0x1081 JUMP JUMPDEST PUSH1 0x40 MLOAD DUP1 SWAP2 SUB SWAP1 REVERT JUMPDEST PUSH2 0x783 ADDRESS DUP6 DUP6 DUP1 DUP1 PUSH1 0x1F ADD PUSH1 0x20 DUP1 SWAP2 DIV MUL PUSH1 0x20 ADD PUSH1 0x40 MLOAD SWAP1 DUP2 ADD PUSH1 0x40 MSTORE DUP1 SWAP4 SWAP3 SWAP2 SWAP1 DUP2 DUP2 MSTORE PUSH1 0x20 ADD DUP4 DUP4 DUP1 DUP3 DUP5 CALLDATACOPY PUSH1 0x0 DUP2 DUP5 ADD MSTORE PUSH1 0x1F NOT PUSH1 0x1F DUP3 ADD AND SWAP1 POP DUP1 DUP4 ADD SWAP3 POP POP POP POP POP POP POP PUSH2 0x940 JUMP JUMPDEST POP PUSH2 0x78C PUSH2 0x9C4 JUMP JUMPDEST POP POP POP POP POP POP POP JUMP JUMPDEST PUSH1 0x0 PUSH2 0x7D2 PUSH1 0x1 PUSH32 0x29982A6AC507A2A707CED6DEE5D76285DD49725DB977DE83D9702C628C974136 PUSH1 0x0 SHR PUSH2 0x7CA SWAP2 SWAP1 PUSH2 0xD76 JUMP JUMPDEST PUSH1 0x0 SHL PUSH2 0x7D7 JUMP JUMPDEST SWAP1 POP SWAP1 JUMP JUMPDEST PUSH1 0x0 DUP2 SLOAD SWAP1 POP SWAP2 SWAP1 POP JUMP JUMPDEST PUSH1 0x0 DUP1 DUP3 PUSH1 0x40 MLOAD PUSH1 0x24 ADD PUSH2 0x7F6 SWAP2 SWAP1 PUSH2 0x10DC JUMP JUMPDEST PUSH1 0x40 MLOAD PUSH1 0x20 DUP2 DUP4 SUB SUB DUP2 MSTORE SWAP1 PUSH1 0x40 MSTORE PUSH4 0x1FFC9A7 PUSH1 0xE0 SHL PUSH1 0x20 DUP3 ADD DUP1 MLOAD PUSH28 0xFFFFFFFFFFFFFFFFFFFFFFFFFFFFFFFFFFFFFFFFFFFFFFFFFFFFFFFF DUP4 DUP2 DUP4 AND OR DUP4 MSTORE POP POP POP POP SWAP1 POP PUSH1 0x0 DUP1 PUSH1 0x0 PUSH1 0x20 PUSH1 0x0 DUP6 MLOAD PUSH1 0x20 DUP8 ADD DUP11 PUSH2 0x7530 STATICCALL SWAP3 POP RETURNDATASIZE SWAP2 POP PUSH1 0x0 MLOAD SWAP1 POP DUP3 DUP1 ISZERO PUSH2 0x869 JUMPI POP PUSH1 0x20 DUP3 LT ISZERO JUMPDEST DUP1 ISZERO PUSH2 0x875 JUMPI POP PUSH1 0x0 DUP2 GT JUMPDEST SWAP5 POP POP POP POP POP SWAP3 SWAP2 POP POP JUMP JUMPDEST DUP1 DUP3 SSTORE POP POP JUMP JUMPDEST PUSH2 0x8C4 PUSH1 0x1 PUSH32 0x471011FB6F6F818490C7275A3F5781BD5EA022CB5A243DD8F2D009D0882C74A3 PUSH1 0x0 SHR PUSH2 0x8BB SWAP2 SWAP1 PUSH2 0xD76 JUMP JUMPDEST PUSH1 0x0 SHL CALLER PUSH2 0x881 JUMP JUMPDEST PUSH2 0x901 PUSH1 0x1 PUSH32 0x649DD3ECD011E05F7B661F5786E7205A54D2201CB71EDE57000D4047776E2040 PUSH1 0x0 SHR PUSH2 0x8F7 SWAP2 SWAP1 PUSH2 0xD76 JUMP JUMPDEST PUSH1 0x0 SHL PUSH1 0x2 PUSH2 0xA7D JUMP JUMPDEST PUSH2 0x93D PUSH1 0x1 PUSH32 0x249FE6EE22E6E15273C690C436E9CD06968FE8FB9E18A17365C2D2AA2ADD4E72 PUSH1 0x0 SHR PUSH2 0x934 SWAP2 SWAP1 PUSH2 0xD76 JUMP JUMPDEST PUSH1 0x0 SHL DUP3 PUSH2 0xA7D JUMP JUMPDEST POP JUMP JUMPDEST PUSH1 0x60 PUSH1 0x0 DUP1 DUP5 PUSH20 0xFFFFFFFFFFFFFFFFFFFFFFFFFFFFFFFFFFFFFFFF AND DUP5 PUSH1 0x40 MLOAD PUSH2 0x96A SWAP2 SWAP1 PUSH2 0x115D JUMP JUMPDEST PUSH1 0x0 PUSH1 0x40 MLOAD DUP1 DUP4 SUB DUP2 DUP6 GAS DELEGATECALL SWAP2 POP POP RETURNDATASIZE DUP1 PUSH1 0x0 DUP2 EQ PUSH2 0x9A5 JUMPI PUSH1 0x40 MLOAD SWAP2 POP PUSH1 0x1F NOT PUSH1 0x3F RETURNDATASIZE ADD AND DUP3 ADD PUSH1 0x40 MSTORE RETURNDATASIZE DUP3 MSTORE RETURNDATASIZE PUSH1 0x0 PUSH1 0x20 DUP5 ADD RETURNDATACOPY PUSH2 0x9AA JUMP JUMPDEST PUSH1 0x60 SWAP2 POP JUMPDEST POP SWAP2 POP SWAP2 POP PUSH2 0x9BA DUP6 DUP4 DUP4 PUSH2 0xA84 JUMP JUMPDEST SWAP3 POP POP POP SWAP3 SWAP2 POP POP JUMP JUMPDEST PUSH2 0xA01 PUSH1 0x1 PUSH32 0x471011FB6F6F818490C7275A3F5781BD5EA022CB5A243DD8F2D009D0882C74A3 PUSH1 0x0 SHR PUSH2 0x9F7 SWAP2 SWAP1 PUSH2 0xD76 JUMP JUMPDEST PUSH1 0x0 SHL PUSH1 0x1 PUSH2 0x881 JUMP JUMPDEST PUSH2 0xA3E PUSH1 0x1 PUSH32 0x649DD3ECD011E05F7B661F5786E7205A54D2201CB71EDE57000D4047776E2040 PUSH1 0x0 SHR PUSH2 0xA34 SWAP2 SWAP1 PUSH2 0xD76 JUMP JUMPDEST PUSH1 0x0 SHL PUSH1 0x1 PUSH2 0xA7D JUMP JUMPDEST PUSH2 0xA7B PUSH1 0x1 PUSH32 0x249FE6EE22E6E15273C690C436E9CD06968FE8FB9E18A17365C2D2AA2ADD4E72 PUSH1 0x0 SHR PUSH2 0xA71 SWAP2 SWAP1 PUSH2 0xD76 JUMP JUMPDEST PUSH1 0x0 SHL PUSH1 0x0 PUSH2 0xA7D JUMP JUMPDEST JUMP JUMPDEST DUP1 DUP3 SSTORE POP POP JUMP JUMPDEST PUSH1 0x60 DUP3 PUSH2 0xA99 JUMPI PUSH2 0xA94 DUP3 PUSH2 0xB13 JUMP JUMPDEST PUSH2 0xB0B JUMP JUMPDEST PUSH1 0x0 DUP3 MLOAD EQ DUP1 ISZERO PUSH2 0xAC1 JUMPI POP PUSH1 0x0 DUP5 PUSH20 0xFFFFFFFFFFFFFFFFFFFFFFFFFFFFFFFFFFFFFFFF AND EXTCODESIZE EQ JUMPDEST ISZERO PUSH2 0xB03 JUMPI DUP4 PUSH1 0x40 MLOAD PUSH32 0x9996B31500000000000000000000000000000000000000000000000000000000 DUP2 MSTORE PUSH1 0x4 ADD PUSH2 0xAFA SWAP2 SWAP1 PUSH2 0xD2C JUMP JUMPDEST PUSH1 0x40 MLOAD DUP1 SWAP2 SUB SWAP1 REVERT JUMPDEST DUP2 SWAP1 POP PUSH2 0xB0C JUMP JUMPDEST JUMPDEST SWAP4 SWAP3 POP POP POP JUMP JUMPDEST PUSH1 0x0 DUP2 MLOAD GT ISZERO PUSH2 0xB26 JUMPI DUP1 MLOAD DUP1 DUP3 PUSH1 0x20 ADD REVERT JUMPDEST PUSH1 0x40 MLOAD PUSH32 0xD6BDA27500000000000000000000000000000000000000000000000000000000 DUP2 MSTORE PUSH1 0x4 ADD PUSH1 0x40 MLOAD DUP1 SWAP2 SUB SWAP1 REVERT JUMPDEST PUSH1 0x0 DUP1 REVERT JUMPDEST PUSH1 0x0 DUP1 REVERT JUMPDEST PUSH1 0x0 PUSH20 0xFFFFFFFFFFFFFFFFFFFFFFFFFFFFFFFFFFFFFFFF DUP3 AND SWAP1 POP SWAP2 SWAP1 POP JUMP JUMPDEST PUSH1 0x0 PUSH2 0xB8D DUP3 PUSH2 0xB62 JUMP JUMPDEST SWAP1 POP SWAP2 SWAP1 POP JUMP JUMPDEST PUSH2 0xB9D DUP2 PUSH2 0xB82 JUMP JUMPDEST DUP2 EQ PUSH2 0xBA8 JUMPI PUSH1 0x0 DUP1 REVERT JUMPDEST POP JUMP JUMPDEST PUSH1 0x0 DUP2 CALLDATALOAD SWAP1 POP PUSH2 0xBBA DUP2 PUSH2 0xB94 JUMP JUMPDEST SWAP3 SWAP2 POP POP JUMP JUMPDEST PUSH1 0x0 PUSH1 0x20 DUP3 DUP5 SUB SLT ISZERO PUSH2 0xBD6 JUMPI PUSH2 0xBD5 PUSH2 0xB58 JUMP JUMPDEST JUMPDEST PUSH1 0x0 PUSH2 0xBE4 DUP5 DUP3 DUP6 ADD PUSH2 0xBAB JUMP JUMPDEST SWAP2 POP POP SWAP3 SWAP2 POP POP JUMP JUMPDEST PUSH1 0x0 DUP2 SWAP1 POP SWAP2 SWAP1 POP JUMP JUMPDEST PUSH2 0xC00 DUP2 PUSH2 0xBED JUMP JUMPDEST DUP2 EQ PUSH2 0xC0B JUMPI PUSH1 0x0 DUP1 REVERT JUMPDEST POP JUMP JUMPDEST PUSH1 0x0 DUP2 CALLDATALOAD SWAP1 POP PUSH2 0xC1D DUP2 PUSH2 0xBF7 JUMP JUMPDEST SWAP3 SWAP2 POP POP JUMP JUMPDEST PUSH1 0x0 DUP1 REVERT JUMPDEST PUSH1 0x0 DUP1 REVERT JUMPDEST PUSH1 0x0 DUP1 REVERT JUMPDEST PUSH1 0x0 DUP1 DUP4 PUSH1 0x1F DUP5 ADD SLT PUSH2 0xC48 JUMPI PUSH2 0xC47 PUSH2 0xC23 JUMP JUMPDEST JUMPDEST DUP3 CALLDATALOAD SWAP1 POP PUSH8 0xFFFFFFFFFFFFFFFF DUP2 GT ISZERO PUSH2 0xC65 JUMPI PUSH2 0xC64 PUSH2 0xC28 JUMP JUMPDEST JUMPDEST PUSH1 0x20 DUP4 ADD SWAP2 POP DUP4 PUSH1 0x1 DUP3 MUL DUP4 ADD GT ISZERO PUSH2 0xC81 JUMPI PUSH2 0xC80 PUSH2 0xC2D JUMP JUMPDEST JUMPDEST SWAP3 POP SWAP3 SWAP1 POP JUMP JUMPDEST PUSH1 0x0 DUP1 PUSH1 0x0 DUP1 PUSH1 0x0 PUSH1 0x60 DUP7 DUP9 SUB SLT ISZERO PUSH2 0xCA4 JUMPI PUSH2 0xCA3 PUSH2 0xB58 JUMP JUMPDEST JUMPDEST PUSH1 0x0 PUSH2 0xCB2 DUP9 DUP3 DUP10 ADD PUSH2 0xC0E JUMP JUMPDEST SWAP6 POP POP PUSH1 0x20 DUP7 ADD CALLDATALOAD PUSH8 0xFFFFFFFFFFFFFFFF DUP2 GT ISZERO PUSH2 0xCD3 JUMPI PUSH2 0xCD2 PUSH2 0xB5D JUMP JUMPDEST JUMPDEST PUSH2 0xCDF DUP9 DUP3 DUP10 ADD PUSH2 0xC32 JUMP JUMPDEST SWAP5 POP SWAP5 POP POP PUSH1 0x40 DUP7 ADD CALLDATALOAD PUSH8 0xFFFFFFFFFFFFFFFF DUP2 GT ISZERO PUSH2 0xD02 JUMPI PUSH2 0xD01 PUSH2 0xB5D JUMP JUMPDEST JUMPDEST PUSH2 0xD0E DUP9 DUP3 DUP10 ADD PUSH2 0xC32 JUMP JUMPDEST SWAP3 POP SWAP3 POP POP SWAP3 SWAP6 POP SWAP3 SWAP6 SWAP1 SWAP4 POP JUMP JUMPDEST PUSH2 0xD26 DUP2 PUSH2 0xB82 JUMP JUMPDEST DUP3 MSTORE POP POP JUMP JUMPDEST PUSH1 0x0 PUSH1 0x20 DUP3 ADD SWAP1 POP PUSH2 0xD41 PUSH1 0x0 DUP4 ADD DUP5 PUSH2 0xD1D JUMP JUMPDEST SWAP3 SWAP2 POP POP JUMP JUMPDEST PUSH32 0x4E487B7100000000000000000000000000000000000000000000000000000000 PUSH1 0x0 MSTORE PUSH1 0x11 PUSH1 0x4 MSTORE PUSH1 0x24 PUSH1 0x0 REVERT JUMPDEST PUSH1 0x0 PUSH2 0xD81 DUP3 PUSH2 0xBED JUMP JUMPDEST SWAP2 POP PUSH2 0xD8C DUP4 PUSH2 0xBED JUMP JUMPDEST SWAP3 POP DUP3 DUP3 SUB SWAP1 POP DUP2 DUP2 GT ISZERO PUSH2 0xDA4 JUMPI PUSH2 0xDA3 PUSH2 0xD47 JUMP JUMPDEST JUMPDEST SWAP3 SWAP2 POP POP JUMP JUMPDEST PUSH1 0x0 DUP3 DUP3 MSTORE PUSH1 0x20 DUP3 ADD SWAP1 POP SWAP3 SWAP2 POP POP JUMP JUMPDEST PUSH32 0x4669726577616C6C436F6E73756D65723A206E6F74206669726577616C6C2061 PUSH1 0x0 DUP3 ADD MSTORE PUSH32 0x646D696E00000000000000000000000000000000000000000000000000000000 PUSH1 0x20 DUP3 ADD MSTORE POP JUMP JUMPDEST PUSH1 0x0 PUSH2 0xE17 PUSH1 0x24 DUP4 PUSH2 0xDAA JUMP JUMPDEST SWAP2 POP PUSH2 0xE22 DUP3 PUSH2 0xDBB JUMP JUMPDEST PUSH1 0x40 DUP3 ADD SWAP1 POP SWAP2 SWAP1 POP JUMP JUMPDEST PUSH1 0x0 PUSH1 0x20 DUP3 ADD SWAP1 POP DUP2 DUP2 SUB PUSH1 0x0 DUP4 ADD MSTORE PUSH2 0xE46 DUP2 PUSH2 0xE0A JUMP JUMPDEST SWAP1 POP SWAP2 SWAP1 POP JUMP JUMPDEST PUSH32 0x4669726577616C6C436F6E73756D65723A207A65726F20616464726573730000 PUSH1 0x0 DUP3 ADD MSTORE POP JUMP JUMPDEST PUSH1 0x0 PUSH2 0xE83 PUSH1 0x1E DUP4 PUSH2 0xDAA JUMP JUMPDEST SWAP2 POP PUSH2 0xE8E DUP3 PUSH2 0xE4D JUMP JUMPDEST PUSH1 0x20 DUP3 ADD SWAP1 POP SWAP2 SWAP1 POP JUMP JUMPDEST PUSH1 0x0 PUSH1 0x20 DUP3 ADD SWAP1 POP DUP2 DUP2 SUB PUSH1 0x0 DUP4 ADD MSTORE PUSH2 0xEB2 DUP2 PUSH2 0xE76 JUMP JUMPDEST SWAP1 POP SWAP2 SWAP1 POP JUMP JUMPDEST PUSH32 0x4669726577616C6C436F6E73756D65723A206E6F74206E65772061646D696E00 PUSH1 0x0 DUP3 ADD MSTORE POP JUMP JUMPDEST PUSH1 0x0 PUSH2 0xEEF PUSH1 0x1F DUP4 PUSH2 0xDAA JUMP JUMPDEST SWAP2 POP PUSH2 0xEFA DUP3 PUSH2 0xEB9 JUMP JUMPDEST PUSH1 0x20 DUP3 ADD SWAP1 POP SWAP2 SWAP1 POP JUMP JUMPDEST PUSH1 0x0 PUSH1 0x20 DUP3 ADD SWAP1 POP DUP2 DUP2 SUB PUSH1 0x0 DUP4 ADD MSTORE PUSH2 0xF1E DUP2 PUSH2 0xEE2 JUMP JUMPDEST SWAP1 POP SWAP2 SWAP1 POP JUMP JUMPDEST PUSH32 0x56656E6E4669726577616C6C436F6E73756D65723A204E6F7420656E6F756768 PUSH1 0x0 DUP3 ADD MSTORE PUSH32 0x2045544820666F72206665650000000000000000000000000000000000000000 PUSH1 0x20 DUP3 ADD MSTORE POP JUMP JUMPDEST PUSH1 0x0 PUSH2 0xF81 PUSH1 0x2C DUP4 PUSH2 0xDAA JUMP JUMPDEST SWAP2 POP PUSH2 0xF8C DUP3 PUSH2 0xF25 JUMP JUMPDEST PUSH1 0x40 DUP3 ADD SWAP1 POP SWAP2 SWAP1 POP JUMP JUMPDEST PUSH1 0x0 PUSH1 0x20 DUP3 ADD SWAP1 POP DUP2 DUP2 SUB PUSH1 0x0 DUP4 ADD MSTORE PUSH2 0xFB0 DUP2 PUSH2 0xF74 JUMP JUMPDEST SWAP1 POP SWAP2 SWAP1 POP JUMP JUMPDEST PUSH1 0x0 DUP2 SWAP1 POP SWAP3 SWAP2 POP POP JUMP JUMPDEST DUP3 DUP2 DUP4 CALLDATACOPY PUSH1 0x0 DUP4 DUP4 ADD MSTORE POP POP POP JUMP JUMPDEST PUSH1 0x0 PUSH2 0xFDD DUP4 DUP6 PUSH2 0xFB7 JUMP JUMPDEST SWAP4 POP PUSH2 0xFEA DUP4 DUP6 DUP5 PUSH2 0xFC2 JUMP JUMPDEST DUP3 DUP5 ADD SWAP1 POP SWAP4 SWAP3 POP POP POP JUMP JUMPDEST PUSH1 0x0 PUSH2 0x1003 DUP3 DUP5 DUP7 PUSH2 0xFD1 JUMP JUMPDEST SWAP2 POP DUP2 SWAP1 POP SWAP4 SWAP3 POP POP POP JUMP JUMPDEST PUSH32 0x56656E6E4669726577616C6C436F6E73756D65723A2050726F78792063616C6C PUSH1 0x0 DUP3 ADD MSTORE PUSH32 0x206661696C656400000000000000000000000000000000000000000000000000 PUSH1 0x20 DUP3 ADD MSTORE POP JUMP JUMPDEST PUSH1 0x0 PUSH2 0x106B PUSH1 0x27 DUP4 PUSH2 0xDAA JUMP JUMPDEST SWAP2 POP PUSH2 0x1076 DUP3 PUSH2 0x100F JUMP JUMPDEST PUSH1 0x40 DUP3 ADD SWAP1 POP SWAP2 SWAP1 POP JUMP JUMPDEST PUSH1 0x0 PUSH1 0x20 DUP3 ADD SWAP1 POP DUP2 DUP2 SUB PUSH1 0x0 DUP4 ADD MSTORE PUSH2 0x109A DUP2 PUSH2 0x105E JUMP JUMPDEST SWAP1 POP SWAP2 SWAP1 POP JUMP JUMPDEST PUSH1 0x0 PUSH32 0xFFFFFFFF00000000000000000000000000000000000000000000000000000000 DUP3 AND SWAP1 POP SWAP2 SWAP1 POP JUMP JUMPDEST PUSH2 0x10D6 DUP2 PUSH2 0x10A1 JUMP JUMPDEST DUP3 MSTORE POP POP JUMP JUMPDEST PUSH1 0x0 PUSH1 0x20 DUP3 ADD SWAP1 POP PUSH2 0x10F1 PUSH1 0x0 DUP4 ADD DUP5 PUSH2 0x10CD JUMP JUMPDEST SWAP3 SWAP2 POP POP JUMP JUMPDEST PUSH1 0x0 DUP2 MLOAD SWAP1 POP SWAP2 SWAP1 POP JUMP JUMPDEST PUSH1 0x0 JUMPDEST DUP4 DUP2 LT ISZERO PUSH2 0x1120 JUMPI DUP1 DUP3 ADD MLOAD DUP2 DUP5 ADD MSTORE PUSH1 0x20 DUP2 ADD SWAP1 POP PUSH2 0x1105 JUMP JUMPDEST PUSH1 0x0 DUP5 DUP5 ADD MSTORE POP POP POP POP JUMP JUMPDEST PUSH1 0x0 PUSH2 0x1137 DUP3 PUSH2 0x10F7 JUMP JUMPDEST PUSH2 0x1141 DUP2 DUP6 PUSH2 0xFB7 JUMP JUMPDEST SWAP4 POP PUSH2 0x1151 DUP2 DUP6 PUSH1 0x20 DUP7 ADD PUSH2 0x1102 JUMP JUMPDEST DUP1 DUP5 ADD SWAP2 POP POP SWAP3 SWAP2 POP POP JUMP JUMPDEST PUSH1 0x0 PUSH2 0x1169 DUP3 DUP5 PUSH2 0x112C JUMP JUMPDEST SWAP2 POP DUP2 SWAP1 POP SWAP3 SWAP2 POP POP JUMP INVALID LOG2 PUSH5 0x6970667358 0x22 SLT KECCAK256 DUP14 0xD1 DUP3 0x2D SWAP11 0xB2 0xDA ADD 0x4C CALLVALUE PUSH24 0x5CA9535FF6A4E621F84FFC202CC1DBB4CB7868E8B964736F PUSH13 0x634300081B0033000000000000 "
        },
        "methodIdentifiers": {
          "acceptFirewallAdmin()": "7c65c38b",
          "firewallAdmin()": "f05c8582",
          "safeFunctionCall(uint256,bytes,bytes)": "cb09f61f",
          "setAttestationCenterProxy(address)": "54222e6c",
          "setFirewall(address)": "8c36d02d",
          "setFirewallAdmin(address)": "734b7198"
        }
      }
    }
  }
}